:100000000C9473000C949D000C949D000C949D0026
:100010000C949D000C949D000C949D000C949D00EC
:100020000C949D000C949D000C949D000C949D00DC
:100030000C949D000C949D000C949D000C949D00CC
:100040000C949D000C949D000C949D000C949D00BC
:100050000C949D000C949D000C949D000C94FC014C
:100060000C949D000C9470020C9446020C949D001C
:100070000C949D000C949D000C949D000C949D008C
:100080000C949D000C949D000C949D000C949D007C
:100090000C949D000C949D000C949D000C949D006C
:1000A0000C949D000C949D000C949D000C949D005C
:1000B0000C949D000C949D000C949D000C949D004C
:1000C0000C949D000C949D000C949D000C949D003C
:1000D0000C949D000C949D000C949D000C949D002C
:1000E0000C949D007F0311241FBECFEFD1E2DEBF31
:1000F000CDBF12E0A0E0B2E0E8E7F7E000E00BBF20
:1001000002C007900D92A037B107D9F723E0A0E70E
:10011000B2E001C01D92A631B207E1F710E0C3E7DB
:10012000D0E004C02197FE010E94AC03C237D10782
:10013000C9F70E94A6020C94BA030C940000CF9257
:10014000DF92EF92FF920F931F93CF93DF936C0197
:100150007A018B01C0E0D0E0CE15DF0589F0D8012F
:100160006D918D01D601ED91FC910190F081E02D12
:10017000C6010995892B11F47E0102C02196ECCFAE
:10018000C701DF91CF911F910F91FF90EF90DF900A
:10019000CF900895089580E090E00895FC01538D7C
:1001A000448D252F30E0842F90E0821B930B541751
:1001B00010F0CF96089501970895FC01918D828DDE
:1001C000981761F0828DDF01A80FB11D5D968C91AB
:1001D000928D9F5F9F73928F90E008958FEF9FEFB6
:1001E0000895FC01918D828D981731F0828DE80F72
:1001F000F11D858D90E008958FEF9FEF0895FC012C
:10020000918D228D892F90E0805C9F4F821B9109F8
:100210008F739927089589E792E00E94FF0021E0FB
:10022000892B09F420E0822F0895FC01848DDF01E1
:10023000A80FB11DA35ABF4F2C91848D90E0019659
:100240008F739927848FA689B7892C93A089B18948
:100250008C9180648C93938D848D981306C0028852
:10026000F389E02D80818F7D80830895EF92FF9246
:100270000F931F93CF93DF93EC0181E0888F9B8DC9
:100280008C8D981305C0E889F989808185FD24C08B
:10029000F62E0B8D10E00F5F1F4F0F731127E02E0E
:1002A0008C8DE8120CC00FB607FCFACFE889F989EB
:1002B000808185FFF5CFCE010E941501F1CF8B8D96
:1002C000FE01E80FF11DE35AFF4FF0820B8FEA8920
:1002D000FB898081806207C0EE89FF896083E8899D
:1002E000F98980818064808381E090E0DF91CF9103
:1002F0001F910F91FF90EF900895CF93DF93EC0142
:10030000888D8823C9F0EA89FB89808185FD05C035
:10031000A889B9898C9186FD0FC00FB607FCF5CF6F
:10032000808185FFF2CFA889B9898C9185FFEDCFB7
:10033000CE010E941501E7CFDF91CF91089580E0B3
:1003400090E0892B21F00E940B01811125C080E0F3
:1003500090E0892B41F080E090E0892B21F00E9411
:10036000000081111CC080E090E0892B41F080E00A
:1003700090E0892B21F00E940000811113C080E0E1
:1003800090E0892BA1F080E090E0892B81F00E9421
:10039000000081110AC008950E940000D8CF0E9479
:1003A0000000E1CF0E940000EACF0C940000089505
:1003B000CF93DF93009779F0FC0101900020E9F7DB
:1003C0003197AF01481B590BBC0189E792E00E94AD
:1003D0009F00EC0102C0C0E0D0E042E050E062E1EA
:1003E00072E089E792E00E949F008C0F9D1FDF91D1
:1003F000CF9108950E94B5031F920F920FB60F92EE
:1004000011242F933F938F939F93AF93BF9380912A
:10041000750290917602A0917702B09178023091A6
:10042000740223E0230F2D3720F40196A11DB11D86
:1004300005C026E8230F0296A11DB11D209374026A
:100440008093750290937602A0937702B09378021E
:100450008091700290917102A0917202B09173022A
:100460000196A11DB11D8093700290937102A0931B
:100470007202B0937302BF91AF919F918F913F91A0
:100480002F910F900FBE0F901F9018951F920F92F3
:100490000FB60F9211240BB60F922F933F934F93E9
:1004A0005F936F937F938F939F93AF93BF93EF93DC
:1004B000FF9389E792E00E941501FF91EF91BF91B0
:1004C000AF919F918F917F916F915F914F913F91EC
:1004D0002F910F900BBE0F900FBE0F901F9018958D
:1004E0001F920F920FB60F9211240BB60F922F93FB
:1004F0008F939F93EF93FF93E0918902F0918A028B
:100500008081E0918F02F091900282FD12C0908173
:10051000809192028F5F8F7320919302821751F026
:10052000E0919202F0E0E758FD4F958F80939202A0
:1005300001C08081FF91EF919F918F912F910F903A
:100540000BBE0F900FBE0F901F901895789484B536
:10055000826084BD84B5816084BD85B5826085BDBF
:1005600085B5816085BD80916E00816080936E004D
:10057000109281008091810082608093810080913F
:1005800081008160809381008091800081608093F0
:1005900080008091B10084608093B1008091B000B0
:1005A00081608093B000809191008260809391007F
:1005B0008091910081608093910080919000816092
:1005C000809390008091A10082608093A10080912F
:1005D000A10081608093A1008091A0008160809340
:1005E000A0008091210182608093210180912101EE
:1005F000816080932101809120018160809320019E
:1006000080917A00846080937A0080917A00826081
:1006100080937A0080917A00816080937A00809143
:100620007A00806880937A001092C100E09189027C
:10063000F0918A0282E08083E0918502F091860247
:100640001082E0918702F09188028FEC80831092F3
:100650009102E0918D02F0918E0286E08083E0911C
:100660008B02F0918C02808180618083E0918B020B
:10067000F0918C02808188608083E0918B02F09100
:100680008C02808180688083E0918B02F0918C02E3
:1006900080818F7D808389E792E00E94FF00181699
:1006A000190654F589E792E00E94DD008237910532
:1006B000D9F05CF483369105D9F084369105E1F4E4
:1006C00085E192E00E94D80107C08837910521F0AA
:1006D0008937910529F010C088E292E00E94D80184
:1006E00089E392E00E94D8018AE492E00E94D80156
:1006F0008EE592E00E94D8010E949F01CCCFE9E7ED
:10070000F2E01382128288EE93E0A0E0B0E08483EE
:100710009583A683B78384E092E09183808385EC00
:1007200090E09587848784EC90E09787868780ECBB
:1007300090E0918B808B81EC90E0938B828B82ECAC
:1007400090E0958B848B86EC90E0978B868B118E56
:10075000128E138E148E0895EE0FFF1F0024001CBE
:100760000BBE0790F691E02D099481E090E0F8949B
:080770000C94BA03F894FFCFCA
:100778000000000036019F00CE007D01FF00DD0073
:10078800F1000D0A0072657475726E696E672064F7
:10079800697374616E636500726F746174696E6702
:1007A800207820736572766F00726F746174696E59
:1007B80067207920736572766F007265736574744B
:1007C800696E67207661726961626C657300636542
:1007D8006E746572696E6720736572766F73000058
:00000001FF
